{
  "contractName": "Zendex",
  "abi": [
    {
      "inputs": [
        {
          "internalType": "contract UsdtToken",
          "name": "_usdtToken",
          "type": "address"
        },
        {
          "internalType": "contract BtcToken",
          "name": "_btcToken",
          "type": "address"
        },
        {
          "internalType": "contract EthToken",
          "name": "_ethToken",
          "type": "address"
        }
      ],
      "payable": false,
      "stateMutability": "nonpayable",
      "type": "constructor"
    },
    {
      "constant": true,
      "inputs": [],
      "name": "btcToken",
      "outputs": [
        {
          "internalType": "contract BtcToken",
          "name": "",
          "type": "address"
        }
      ],
      "payable": false,
      "stateMutability": "view",
      "type": "function"
    },
    {
      "constant": true,
      "inputs": [
        {
          "internalType": "uint256",
          "name": "",
          "type": "uint256"
        }
      ],
      "name": "currencies",
      "outputs": [
        {
          "internalType": "string",
          "name": "",
          "type": "string"
        }
      ],
      "payable": false,
      "stateMutability": "view",
      "type": "function"
    },
    {
      "constant": true,
      "inputs": [],
      "name": "ethToken",
      "outputs": [
        {
          "internalType": "contract EthToken",
          "name": "",
          "type": "address"
        }
      ],
      "payable": false,
      "stateMutability": "view",
      "type": "function"
    },
    {
      "constant": true,
      "inputs": [
        {
          "internalType": "address",
          "name": "",
          "type": "address"
        }
      ],
      "name": "hasStaked",
      "outputs": [
        {
          "internalType": "bool",
          "name": "",
          "type": "bool"
        }
      ],
      "payable": false,
      "stateMutability": "view",
      "type": "function"
    },
    {
      "constant": true,
      "inputs": [
        {
          "internalType": "address",
          "name": "",
          "type": "address"
        }
      ],
      "name": "isStaking",
      "outputs": [
        {
          "internalType": "bool",
          "name": "",
          "type": "bool"
        }
      ],
      "payable": false,
      "stateMutability": "view",
      "type": "function"
    },
    {
      "constant": true,
      "inputs": [],
      "name": "name",
      "outputs": [
        {
          "internalType": "string",
          "name": "",
          "type": "string"
        }
      ],
      "payable": false,
      "stateMutability": "view",
      "type": "function"
    },
    {
      "constant": true,
      "inputs": [
        {
          "internalType": "uint256",
          "name": "",
          "type": "uint256"
        },
        {
          "internalType": "uint256",
          "name": "",
          "type": "uint256"
        }
      ],
      "name": "priceFeed",
      "outputs": [
        {
          "internalType": "uint256",
          "name": "",
          "type": "uint256"
        }
      ],
      "payable": false,
      "stateMutability": "view",
      "type": "function"
    },
    {
      "constant": true,
      "inputs": [
        {
          "internalType": "address",
          "name": "",
          "type": "address"
        }
      ],
      "name": "stakingBalance",
      "outputs": [
        {
          "internalType": "uint256",
          "name": "",
          "type": "uint256"
        }
      ],
      "payable": false,
      "stateMutability": "view",
      "type": "function"
    },
    {
      "constant": true,
      "inputs": [],
      "name": "timeJump",
      "outputs": [
        {
          "internalType": "uint256",
          "name": "",
          "type": "uint256"
        }
      ],
      "payable": false,
      "stateMutability": "view",
      "type": "function"
    },
    {
      "constant": true,
      "inputs": [],
      "name": "usdtToken",
      "outputs": [
        {
          "internalType": "contract UsdtToken",
          "name": "",
          "type": "address"
        }
      ],
      "payable": false,
      "stateMutability": "view",
      "type": "function"
    },
    {
      "constant": true,
      "inputs": [
        {
          "internalType": "address",
          "name": "",
          "type": "address"
        }
      ],
      "name": "users",
      "outputs": [
        {
          "internalType": "address",
          "name": "userAddress",
          "type": "address"
        }
      ],
      "payable": false,
      "stateMutability": "view",
      "type": "function"
    },
    {
      "constant": false,
      "inputs": [
        {
          "internalType": "uint256",
          "name": "_amount",
          "type": "uint256"
        }
      ],
      "name": "stakeUsdt",
      "outputs": [],
      "payable": false,
      "stateMutability": "nonpayable",
      "type": "function"
    },
    {
      "constant": false,
      "inputs": [
        {
          "internalType": "uint256",
          "name": "amount",
          "type": "uint256"
        }
      ],
      "name": "unstakeUsdt",
      "outputs": [],
      "payable": false,
      "stateMutability": "nonpayable",
      "type": "function"
    },
    {
      "constant": false,
      "inputs": [],
      "name": "rebalance",
      "outputs": [],
      "payable": false,
      "stateMutability": "nonpayable",
      "type": "function"
    },
    {
      "constant": true,
      "inputs": [
        {
          "internalType": "uint256[]",
          "name": "arr",
          "type": "uint256[]"
        }
      ],
      "name": "getSum",
      "outputs": [
        {
          "internalType": "uint256",
          "name": "",
          "type": "uint256"
        }
      ],
      "payable": false,
      "stateMutability": "view",
      "type": "function"
    },
    {
      "constant": false,
      "inputs": [
        {
          "internalType": "uint256",
          "name": "indexCurrency1",
          "type": "uint256"
        },
        {
          "internalType": "uint256",
          "name": "indexCurrency2",
          "type": "uint256"
        },
        {
          "internalType": "uint256",
          "name": "amount",
          "type": "uint256"
        }
      ],
      "name": "trade",
      "outputs": [
        {
          "internalType": "uint256",
          "name": "",
          "type": "uint256"
        }
      ],
      "payable": false,
      "stateMutability": "nonpayable",
      "type": "function"
    },
    {
      "constant": true,
      "inputs": [],
      "name": "getBalances",
      "outputs": [
        {
          "internalType": "uint256[]",
          "name": "",
          "type": "uint256[]"
        }
      ],
      "payable": false,
      "stateMutability": "view",
      "type": "function"
    },
    {
      "constant": true,
      "inputs": [],
      "name": "getUsdtBalances",
      "outputs": [
        {
          "internalType": "uint256[]",
          "name": "",
          "type": "uint256[]"
        }
      ],
      "payable": false,
      "stateMutability": "view",
      "type": "function"
    },
    {
      "constant": true,
      "inputs": [],
      "name": "getTotalUsdtValue",
      "outputs": [
        {
          "internalType": "uint256",
          "name": "",
          "type": "uint256"
        }
      ],
      "payable": false,
      "stateMutability": "view",
      "type": "function"
    },
    {
      "constant": true,
      "inputs": [],
      "name": "getUsdtPrices",
      "outputs": [
        {
          "internalType": "uint256[]",
          "name": "",
          "type": "uint256[]"
        }
      ],
      "payable": false,
      "stateMutability": "view",
      "type": "function"
    },
    {
      "constant": true,
      "inputs": [],
      "name": "getPercentages",
      "outputs": [
        {
          "internalType": "uint256[]",
          "name": "",
          "type": "uint256[]"
        }
      ],
      "payable": false,
      "stateMutability": "view",
      "type": "function"
    }
  ],
  "bytecode": "0x60806040526040518060400160405280601281526020017f57656c636f6d6520746f205a454e4445582e000000000000000000000000000081525060009080519060200190620000519291906200035f565b5060405180606001604052806040518060400160405280600481526020017f757364740000000000000000000000000000000000000000000000000000000081525081526020016040518060400160405280600381526020017f627463000000000000000000000000000000000000000000000000000000000081525081526020016040518060400160405280600381526020017f657468000000000000000000000000000000000000000000000000000000000081525081525060019060036200011e929190620003e6565b506040518060a001604052806040518060600160405280600161ffff16815260200161ea6061ffff168152602001610fa061ffff1681525081526020016040518060600160405280600161ffff16815260200161c35061ffff168152602001610bb861ffff1681525081526020016040518060600160405280600161ffff16815260200161afc861ffff1681526020016109c461ffff1681525081526020016040518060600160405280600161ffff16815260200161fde861ffff16815260200161113061ffff1681525081526020016040518060600160405280600161ffff16815260200161ea6061ffff168152602001610fa061ffff1681525081525060029060056200022f9291906200044d565b5060006003553480156200024257600080fd5b5060405162001c2838038062001c28833981810160405260608110156200026857600080fd5b8101908080519060200190929190805190602001909291908051906020019092919050505082600460006101000a81548173ffffffffffffffffffffffffffffffffffffffff021916908373ffffffffffffffffffffffffffffffffffffffff16021790555081600560006101000a81548173ffffffffffffffffffffffffffffffffffffffff021916908373ffffffffffffffffffffffffffffffffffffffff16021790555080600660006101000a81548173ffffffffffffffffffffffffffffffffffffffff021916908373ffffffffffffffffffffffffffffffffffffffff16021790555060003390505050505062000687565b828054600181600116156101000203166002900490600052602060002090601f016020900481019282601f10620003a257805160ff1916838001178555620003d3565b82800160010185558215620003d3579182015b82811115620003d2578251825591602001919060010190620003b5565b5b509050620003e29190620004af565b5090565b8280548282559060005260206000209081019282156200043a579160200282015b828111156200043957825182908051906020019062000428929190620004d7565b509160200191906001019062000407565b5b5090506200044991906200055e565b5090565b8280548282559060005260206000209081019282156200049c579160200282015b828111156200049b578251829060036200048a9291906200058f565b50916020019190600101906200046e565b5b509050620004ab9190620005e7565b5090565b620004d491905b80821115620004d0576000816000905550600101620004b6565b5090565b90565b828054600181600116156101000203166002900490600052602060002090601f016020900481019282601f106200051a57805160ff19168380011785556200054b565b828001600101855582156200054b579182015b828111156200054a5782518255916020019190600101906200052d565b5b5090506200055a9190620004af565b5090565b6200058c91905b808211156200058857600081816200057e919062000618565b5060010162000565565b5090565b90565b828054828255906000526020600020908101928215620005d4579160200282015b82811115620005d3578251829061ffff16905591602001919060010190620005b0565b5b509050620005e39190620004af565b5090565b6200061591905b8082111562000611576000818162000607919062000664565b50600101620005ee565b5090565b90565b50805460018160011615610100020316600290046000825580601f1062000640575062000661565b601f016020900490600052602060002090810190620006609190620004af565b5b50565b5080546000825590600052602060002090810190620006849190620004af565b50565b61159180620006976000396000f3fe608060405234801561001057600080fd5b50600436106101365760003560e01c80637bf1a627116100b8578063a98ad46c1161007c578063a98ad46c1461059f578063c93c8f34146105e9578063ccb8c1e014610645578063cfc1848e14610711578063f6d1c2711461075d578063f936d6d21461080457610136565b80637bf1a627146104095780637d7c2a1c146104535780637e470e0a1461045d57806390f25eb3146104bc578063a87430ba1461051b57610136565b806345bc78ab116100ff57806345bc78ab146102a35780634ee8d115146102fb5780634fa281ff146103515780636f49712b1461037f57806374b431ce146103db57610136565b8062113e081461013b57806306fdde031461019a578063074bc1011461021d5780630bec3f1f1461026757806323ab83b114610285575b600080fd5b610143610863565b6040518080602001828103825283818151815260200191508051906020019060200280838360005b8381101561018657808201518184015260208101905061016b565b505050509050019250505060405180910390f35b6101a26108f5565b6040518080602001828103825283818151815260200191508051906020019080838360005b838110156101e25780820151818401526020810190506101c7565b50505050905090810190601f16801561020f5780820380516001836020036101000a031916815260200191505b509250505060405180910390f35b610225610993565b604051808273ffffffffffffffffffffffffffffffffffffffff1673ffffffffffffffffffffffffffffffffffffffff16815260200191505060405180910390f35b61026f6109b9565b6040518082815260200191505060405180910390f35b61028d6109dc565b6040518082815260200191505060405180910390f35b6102e5600480360360208110156102b957600080fd5b81019080803573ffffffffffffffffffffffffffffffffffffffff1690602001909291905050506109e2565b6040518082815260200191505060405180910390f35b61033b6004803603606081101561031157600080fd5b810190808035906020019092919080359060200190929190803590602001909291905050506109fa565b6040518082815260200191505060405180910390f35b61037d6004803603602081101561036757600080fd5b8101908080359060200190929190505050610a3b565b005b6103c16004803603602081101561039557600080fd5b81019080803573ffffffffffffffffffffffffffffffffffffffff169060200190929190505050610d02565b604051808215151515815260200191505060405180910390f35b610407600480360360208110156103f157600080fd5b8101908080359060200190929190505050610d22565b005b6104116110f1565b604051808273ffffffffffffffffffffffffffffffffffffffff1673ffffffffffffffffffffffffffffffffffffffff16815260200191505060405180910390f35b61045b611117565b005b610465611154565b6040518080602001828103825283818151815260200191508051906020019060200280838360005b838110156104a857808201518184015260208101905061048d565b505050509050019250505060405180910390f35b6104c46111f9565b6040518080602001828103825283818151815260200191508051906020019060200280838360005b838110156105075780820151818401526020810190506104ec565b505050509050019250505060405180910390f35b61055d6004803603602081101561053157600080fd5b81019080803573ffffffffffffffffffffffffffffffffffffffff169060200190929190505050611273565b604051808273ffffffffffffffffffffffffffffffffffffffff1673ffffffffffffffffffffffffffffffffffffffff16815260200191505060405180910390f35b6105a76112b1565b604051808273ffffffffffffffffffffffffffffffffffffffff1673ffffffffffffffffffffffffffffffffffffffff16815260200191505060405180910390f35b61062b600480360360208110156105ff57600080fd5b81019080803573ffffffffffffffffffffffffffffffffffffffff1690602001909291905050506112d7565b604051808215151515815260200191505060405180910390f35b6106fb6004803603602081101561065b57600080fd5b810190808035906020019064010000000081111561067857600080fd5b82018360208201111561068a57600080fd5b803590602001918460208302840111640100000000831117156106ac57600080fd5b919080806020026020016040519081016040528093929190818152602001838360200280828437600081840152601f19601f8201169050808301925050505050505091929192905050506112f7565b6040518082815260200191505060405180910390f35b6107476004803603604081101561072757600080fd5b81019080803590602001909291908035906020019092919050505061133c565b6040518082815260200191505060405180910390f35b6107896004803603602081101561077357600080fd5b8101908080359060200190929190505050611373565b6040518080602001828103825283818151815260200191508051906020019080838360005b838110156107c95780820151818401526020810190506107ae565b50505050905090810190601f1680156107f65780820380516001836020036101000a031916815260200191505b509250505060405180910390f35b61080c61142c565b6040518080602001828103825283818151815260200191508051906020019060200280838360005b8381101561084f578082015181840152602081019050610834565b505050509050019250505060405180910390f35b60608060008090505b6001805490508110156108ed57600a60003373ffffffffffffffffffffffffffffffffffffffff1673ffffffffffffffffffffffffffffffffffffffff16815260200190815260200160002060010181600381106108c657fe5b01548282815181106108d457fe5b602002602001018181525050808060010191505061086c565b508091505090565b60008054600181600116156101000203166002900480601f01602080910402602001604051908101604052809291908181526020018280546001816001161561010002031660029004801561098b5780601f106109605761010080835404028352916020019161098b565b820191906000526020600020905b81548152906001019060200180831161096e57829003601f168201915b505050505081565b600560009054906101000a900473ffffffffffffffffffffffffffffffffffffffff1681565b600060606109c561142c565b905060006109d2826112f7565b9050809250505090565b60035481565b60076020528060005260406000206000915090505481565b600080600260035481548110610a0c57fe5b906000526020600020018581548110610a2157fe5b906000526020600020015483029050809150509392505050565b6060610a45610863565b90506000610a516109b9565b905060008111610ac9576040517f08c379a00000000000000000000000000000000000000000000000000000000081526004018080602001828103825260168152602001807f4e6f2062616c616e636520746f20756e7374616b652e0000000000000000000081525060200191505060405180910390fd5b80831115610b22576040517f08c379a000000000000000000000000000000000000000000000000000000000815260040180806020018281038252602381526020018061153a6023913960400191505060405180910390fd5b6000818481610b2d57fe5b0490506000809050600080905060008090505b600180549050811015610b8257610b6e81600086898581518110610b6057fe5b6020026020010151026109fa565b915081830192508080600101915050610b40565b5060008090505b600180549050811015610c145783868281518110610ba357fe5b602002602001015102600a60003373ffffffffffffffffffffffffffffffffffffffff1673ffffffffffffffffffffffffffffffffffffffff1681526020019081526020016000206001018260038110610bf957fe5b01600082825403925050819055508080600101915050610b89565b50600460009054906101000a900473ffffffffffffffffffffffffffffffffffffffff1673ffffffffffffffffffffffffffffffffffffffff1663a9059cbb33846040518363ffffffff1660e01b8152600401808373ffffffffffffffffffffffffffffffffffffffff1673ffffffffffffffffffffffffffffffffffffffff16815260200182815260200192505050602060405180830381600087803b158015610cbe57600080fd5b505af1158015610cd2573d6000803e3d6000fd5b505050506040513d6020811015610ce857600080fd5b810190808051906020019092919050505050505050505050565b60096020528060005260406000206000915054906101000a900460ff1681565b60008111610d98576040517f08c379a00000000000000000000000000000000000000000000000000000000081526004018080602001828103825260138152602001807f416d6f756e742063616e6e6f7420626520302e0000000000000000000000000081525060200191505060405180910390fd5b600460009054906101000a900473ffffffffffffffffffffffffffffffffffffffff1673ffffffffffffffffffffffffffffffffffffffff166323b872dd3330846040518463ffffffff1660e01b8152600401808473ffffffffffffffffffffffffffffffffffffffff1673ffffffffffffffffffffffffffffffffffffffff1681526020018373ffffffffffffffffffffffffffffffffffffffff1673ffffffffffffffffffffffffffffffffffffffff1681526020018281526020019350505050602060405180830381600087803b158015610e7557600080fd5b505af1158015610e89573d6000803e3d6000fd5b505050506040513d6020811015610e9f57600080fd5b81019080805190602001909291905050505060011515600860003373ffffffffffffffffffffffffffffffffffffffff1673ffffffffffffffffffffffffffffffffffffffff16815260200190815260200160002060009054906101000a900460ff161515151415610fe157610f136114b2565b60405180604001604052803373ffffffffffffffffffffffffffffffffffffffff16815260200182815250600a60003373ffffffffffffffffffffffffffffffffffffffff1673ffffffffffffffffffffffffffffffffffffffff16815260200190815260200160002060008201518160000160006101000a81548173ffffffffffffffffffffffffffffffffffffffff021916908373ffffffffffffffffffffffffffffffffffffffff160217905550602082015181600101906003610fdb9291906114d4565b50905050505b80600a60003373ffffffffffffffffffffffffffffffffffffffff1673ffffffffffffffffffffffffffffffffffffffff16815260200190815260200160002060010160006003811061103057fe5b01600082825401925050819055506001600960003373ffffffffffffffffffffffffffffffffffffffff1673ffffffffffffffffffffffffffffffffffffffff16815260200190815260200160002060006101000a81548160ff0219169083151502179055506001600860003373ffffffffffffffffffffffffffffffffffffffff1673ffffffffffffffffffffffffffffffffffffffff16815260200190815260200160002060006101000a81548160ff02191690831515021790555050565b600660009054906101000a900473ffffffffffffffffffffffffffffffffffffffff1681565b6060611121610863565b9050606061112d6111f9565b905060028054905060035410156111505760016003600082825401925050819055505b5050565b60608060036040519080825280602002602001820160405280156111875781602001602082028038833980820191505090505b50905060008090505b6001805490508110156111f1576002600354815481106111ac57fe5b9060005260206000200181815481106111c157fe5b90600052602060002001548282815181106111d857fe5b6020026020010181815250508080600101915050611190565b508091505090565b60608061120461142c565b905060006112106109b9565b9050606060008090505b600180549050811015611269578284828151811061123457fe5b60200260200101518161124357fe5b0482828151811061125057fe5b602002602001018181525050808060010191505061121a565b5080935050505090565b600a6020528060005260406000206000915090508060000160009054906101000a900473ffffffffffffffffffffffffffffffffffffffff16905081565b600460009054906101000a900473ffffffffffffffffffffffffffffffffffffffff1681565b60086020528060005260406000206000915054906101000a900460ff1681565b6000806000809050600091505b83518210156113325783828151811061131957fe5b6020026020010151810190508180600101925050611304565b8092505050919050565b6002828154811061134957fe5b90600052602060002001818154811061135e57fe5b90600052602060002001600091509150505481565b6001818154811061138057fe5b906000526020600020016000915090508054600181600116156101000203166002900480601f0160208091040260200160405190810160405280929190818152602001828054600181600116156101000203166002900480156114245780601f106113f957610100808354040283529160200191611424565b820191906000526020600020905b81548152906001019060200180831161140757829003601f168201915b505050505081565b606080611437610863565b90506060611443611154565b9050606060008090505b6001805490508110156114a85782818151811061146657fe5b602002602001015184828151811061147a57fe5b60200260200101510282828151811061148f57fe5b602002602001018181525050808060010191505061144d565b5080935050505090565b6040518060600160405280600390602082028038833980820191505090505090565b8260038101928215611503579160200282015b828111156115025782518255916020019190600101906114e7565b5b5090506115109190611514565b5090565b61153691905b8082111561153257600081600090555060010161151a565b5090565b9056fe416d6f756e74206578636565647320746f74616c2076616c756520696e20757364742ea265627a7a723158204129a3b283dbda6a4124acce9e9210f87ceebc304af4abf0d7934a501cf11ff264736f6c63430005100032",
  "source": "pragma solidity >=0.4.21 <0.6.0;\r\n\r\nimport \"./UsdtToken.sol\";\r\nimport \"./BtcToken.sol\";\r\nimport \"./EthToken.sol\";\r\n\r\n\r\ncontract Zendex {\r\n\r\n    // VARIABLES\r\n    string public name = \"Welcome to ZENDEX.\";\r\n    string[] public currencies = [\"usdt\", \"btc\", \"eth\"];\r\n    uint[][] public priceFeed = [[1, 60000, 4000],[1, 50000, 3000],[1, 45000, 2500],[1, 65000, 4400],[1, 60000, 4000]];\r\n    uint public timeJump = 0;\r\n\r\n    // State variables\r\n    UsdtToken public usdtToken;\r\n    BtcToken public btcToken;\r\n    EthToken public ethToken;\r\n\r\n    // Mapping lists\r\n    mapping(address => uint) public stakingBalance;\r\n    mapping(address => bool) public hasStaked;\r\n    mapping(address => bool) public isStaking;\r\n    mapping(address => User) public users;\r\n\r\n    // User structure\r\n    struct User{\r\n        address userAddress;\r\n        uint256[3] balances; \r\n    }\r\n\r\n    // EVENTS\r\n    //event UsersUpdate(User users);\r\n\r\n    // MODIFIERS\r\n\r\n    // FUCTIONS\r\n\r\n    constructor (UsdtToken _usdtToken, BtcToken _btcToken, EthToken _ethToken) public {\r\n        // Pass (local variable) addresses to state variables to make them accessible to other functions\r\n        usdtToken = _usdtToken;\r\n        btcToken = _btcToken;\r\n        ethToken = _ethToken;\r\n        address owner = msg.sender;\r\n    }\r\n\r\n    // Staking USDT\r\n    function stakeUsdt(uint _amount) public {\r\n        require(_amount > 0, \"Amount cannot be 0.\");\r\n        // Transfer Mock USDT Tokensto this contract for staking\r\n        usdtToken.transferFrom(msg.sender, address(this), _amount);\r\n        // Update staking balance\r\n        if(!hasStaked[msg.sender] == true) {\r\n            uint256[3] memory initBalances;\r\n            users[msg.sender] = User(msg.sender, initBalances);\r\n        }\r\n        // Update amount USDT\r\n        users[msg.sender].balances[0] += _amount;\r\n\r\n        // Update staking status\r\n        isStaking[msg.sender] = true;\r\n        hasStaked[msg.sender] = true;\r\n\r\n        // Log to chain\r\n        //emit UsersUpdate(users);\r\n    }\r\n\r\n    // Unstaking USDT\r\n    function unstakeUsdt(uint amount) public {\r\n        // Fetch balances of assets\r\n        uint[] memory balances = getBalances();\r\n        // Fetch total value in USDT\r\n        uint totalUsdtValue = getTotalUsdtValue();\r\n        // Require total value in USDT > 0\r\n        require(totalUsdtValue > 0, \"No balance to unstake.\");\r\n        require(amount <= totalUsdtValue, \"Amount exceeds total value in usdt.\");\r\n        \r\n        // Trade assets for requested USDT\r\n        uint percentToUnstake = amount / totalUsdtValue;\r\n        uint totalUsdtTraded = 0;\r\n        uint usdtTraded = 0;\r\n        for (uint i=0; i<currencies.length; i++) {\r\n            usdtTraded = trade(i, 0, balances[i]*percentToUnstake);\r\n            totalUsdtTraded += usdtTraded;\r\n        }\r\n        \r\n        // Update user balances\r\n        for (uint i=0; i<currencies.length; i++) {\r\n            users[msg.sender].balances[i] -= balances[i]*percentToUnstake;\r\n        }\r\n\r\n        // Transfer amount to user\r\n        usdtToken.transfer(msg.sender, totalUsdtTraded);\r\n\r\n        // Log to chain\r\n        //emit UsersUpdate(users);\r\n    }\r\n\r\n    // Rebalancing\r\n    function rebalance() public {\r\n        uint[] memory balances = getBalances();\r\n        uint[] memory percentages = getPercentages();\r\n\r\n\r\n\r\n        // Log to chain\r\n        //emit UsersUpdate(users);\r\n\r\n        // Jump to next point in time\r\n        if (timeJump < priceFeed.length) {\r\n            timeJump +=1;\r\n        }\r\n    }\r\n    \r\n    // Get sum of elements of dynamic array\r\n    function getSum(uint[] memory arr) public view returns(uint)\r\n    {\r\n        uint i;\r\n        uint sum = 0;\r\n        for(i = 0; i < arr.length; i++)\r\n            sum = sum + arr[i];\r\n        return sum;\r\n    }\r\n\r\n    // Execute trade\r\n    function trade(uint indexCurrency1, uint indexCurrency2, uint amount) public returns(uint) {\r\n          // Execute mock trade\r\n          uint tradeOut = amount * priceFeed[timeJump][indexCurrency1];\r\n          return tradeOut;\r\n    }\r\n\r\n    // Get absolute balances\r\n    function getBalances() public view returns(uint[] memory) {\r\n        uint[] memory balances;\r\n        for (uint i=0; i<currencies.length; i++) {\r\n            balances[i] = users[msg.sender].balances[i];\r\n        }\r\n        return balances; \r\n    }\r\n\r\n    // Get balances in USDT\r\n    function getUsdtBalances() public view returns(uint[] memory) {\r\n        uint[] memory balances = getBalances();\r\n        uint[] memory usdtPrices = getUsdtPrices();\r\n        uint[] memory usdtBalances;\r\n        for (uint i=0; i<currencies.length; i++) {\r\n            usdtBalances[i] = balances[i] * usdtPrices[i];\r\n        }\r\n        return usdtBalances;\r\n    }\r\n\r\n    // Get total balance in USDT\r\n    function getTotalUsdtValue() public view returns(uint) {\r\n        uint[] memory usdtBalances = getUsdtBalances();\r\n        uint totalUsdtValue = getSum(usdtBalances);\r\n\r\n        return totalUsdtValue;\r\n    }\r\n\r\n    // Get prices in USDT\r\n    function getUsdtPrices() public view returns(uint[] memory) {\r\n        uint[] memory usdtPrice = new uint[](3);\r\n        for (uint i=0; i<currencies.length; i++) {\r\n            usdtPrice[i] = priceFeed[timeJump][i];\r\n        }\r\n        return usdtPrice;\r\n    }\r\n\r\n    // Get percentages\r\n    function getPercentages() public view returns(uint[] memory) {\r\n\r\n        // Get balances from user\r\n        uint[] memory usdtBalances = getUsdtBalances();\r\n        uint totalUsdtBalance = getTotalUsdtValue();\r\n        uint[] memory percentages;\r\n        for (uint i=0; i<currencies.length; i++) {\r\n            percentages[i] = usdtBalances[i] / totalUsdtBalance;\r\n        }\r\n        return percentages;\r\n    }\r\n    \r\n\r\n}",
  "sourcePath": "C:\\Users\\ThinkPad T460s\\Documents\\GitHub\\Zendex\\src\\contracts\\Zendex.sol",
  "compiler": {
    "name": "solc",
    "version": "0.5.16+commit.9c3226ce.Emscripten.clang"
  },
  "schemaVersion": "3.4.3",
  "updatedAt": "2021-12-04T13:16:56.844Z",
  "networkType": "ethereum",
  "devdoc": {
    "methods": {}
  },
  "userdoc": {
    "methods": {}
  }
}