{
  "contractName": "Zendex",
  "abi": [
    {
      "inputs": [
        {
          "internalType": "contract UsdtToken",
          "name": "_usdtToken",
          "type": "address"
        },
        {
          "internalType": "contract BtcToken",
          "name": "_btcToken",
          "type": "address"
        },
        {
          "internalType": "contract EthToken",
          "name": "_ethToken",
          "type": "address"
        }
      ],
      "payable": false,
      "stateMutability": "nonpayable",
      "type": "constructor"
    },
    {
      "constant": true,
      "inputs": [],
      "name": "btcToken",
      "outputs": [
        {
          "internalType": "contract BtcToken",
          "name": "",
          "type": "address"
        }
      ],
      "payable": false,
      "stateMutability": "view",
      "type": "function"
    },
    {
      "constant": true,
      "inputs": [
        {
          "internalType": "uint256",
          "name": "",
          "type": "uint256"
        }
      ],
      "name": "currencies",
      "outputs": [
        {
          "internalType": "string",
          "name": "",
          "type": "string"
        }
      ],
      "payable": false,
      "stateMutability": "view",
      "type": "function"
    },
    {
      "constant": true,
      "inputs": [],
      "name": "ethToken",
      "outputs": [
        {
          "internalType": "contract EthToken",
          "name": "",
          "type": "address"
        }
      ],
      "payable": false,
      "stateMutability": "view",
      "type": "function"
    },
    {
      "constant": true,
      "inputs": [
        {
          "internalType": "address",
          "name": "",
          "type": "address"
        }
      ],
      "name": "indexSetUp",
      "outputs": [
        {
          "internalType": "bool",
          "name": "",
          "type": "bool"
        }
      ],
      "payable": false,
      "stateMutability": "view",
      "type": "function"
    },
    {
      "constant": true,
      "inputs": [
        {
          "internalType": "address",
          "name": "",
          "type": "address"
        }
      ],
      "name": "isStaking",
      "outputs": [
        {
          "internalType": "bool",
          "name": "",
          "type": "bool"
        }
      ],
      "payable": false,
      "stateMutability": "view",
      "type": "function"
    },
    {
      "constant": true,
      "inputs": [],
      "name": "name",
      "outputs": [
        {
          "internalType": "string",
          "name": "",
          "type": "string"
        }
      ],
      "payable": false,
      "stateMutability": "view",
      "type": "function"
    },
    {
      "constant": true,
      "inputs": [
        {
          "internalType": "uint256",
          "name": "",
          "type": "uint256"
        },
        {
          "internalType": "uint256",
          "name": "",
          "type": "uint256"
        }
      ],
      "name": "priceFeed",
      "outputs": [
        {
          "internalType": "uint256",
          "name": "",
          "type": "uint256"
        }
      ],
      "payable": false,
      "stateMutability": "view",
      "type": "function"
    },
    {
      "constant": true,
      "inputs": [
        {
          "internalType": "address",
          "name": "",
          "type": "address"
        }
      ],
      "name": "stakingBalance",
      "outputs": [
        {
          "internalType": "uint256",
          "name": "",
          "type": "uint256"
        }
      ],
      "payable": false,
      "stateMutability": "view",
      "type": "function"
    },
    {
      "constant": true,
      "inputs": [],
      "name": "timeJump",
      "outputs": [
        {
          "internalType": "uint256",
          "name": "",
          "type": "uint256"
        }
      ],
      "payable": false,
      "stateMutability": "view",
      "type": "function"
    },
    {
      "constant": true,
      "inputs": [],
      "name": "usdtToken",
      "outputs": [
        {
          "internalType": "contract UsdtToken",
          "name": "",
          "type": "address"
        }
      ],
      "payable": false,
      "stateMutability": "view",
      "type": "function"
    },
    {
      "constant": true,
      "inputs": [
        {
          "internalType": "address",
          "name": "",
          "type": "address"
        }
      ],
      "name": "users",
      "outputs": [
        {
          "internalType": "address",
          "name": "userAddress",
          "type": "address"
        }
      ],
      "payable": false,
      "stateMutability": "view",
      "type": "function"
    },
    {
      "constant": false,
      "inputs": [
        {
          "internalType": "uint256",
          "name": "_amount",
          "type": "uint256"
        }
      ],
      "name": "stakeUsdt",
      "outputs": [],
      "payable": false,
      "stateMutability": "nonpayable",
      "type": "function"
    },
    {
      "constant": false,
      "inputs": [
        {
          "internalType": "uint256",
          "name": "amount",
          "type": "uint256"
        }
      ],
      "name": "unstakeUsdt",
      "outputs": [],
      "payable": false,
      "stateMutability": "nonpayable",
      "type": "function"
    },
    {
      "constant": false,
      "inputs": [],
      "name": "rebalance",
      "outputs": [],
      "payable": false,
      "stateMutability": "nonpayable",
      "type": "function"
    },
    {
      "constant": false,
      "inputs": [
        {
          "internalType": "uint256[]",
          "name": "percentages",
          "type": "uint256[]"
        }
      ],
      "name": "setupIndex",
      "outputs": [],
      "payable": false,
      "stateMutability": "nonpayable",
      "type": "function"
    },
    {
      "constant": true,
      "inputs": [
        {
          "internalType": "uint256[]",
          "name": "arr",
          "type": "uint256[]"
        }
      ],
      "name": "getSum",
      "outputs": [
        {
          "internalType": "uint256",
          "name": "",
          "type": "uint256"
        }
      ],
      "payable": false,
      "stateMutability": "view",
      "type": "function"
    },
    {
      "constant": false,
      "inputs": [
        {
          "internalType": "uint256",
          "name": "indexCurrency1",
          "type": "uint256"
        },
        {
          "internalType": "uint256",
          "name": "indexCurrency2",
          "type": "uint256"
        },
        {
          "internalType": "uint256",
          "name": "amount",
          "type": "uint256"
        }
      ],
      "name": "trade",
      "outputs": [
        {
          "internalType": "uint256",
          "name": "",
          "type": "uint256"
        }
      ],
      "payable": false,
      "stateMutability": "nonpayable",
      "type": "function"
    },
    {
      "constant": true,
      "inputs": [],
      "name": "getBalances",
      "outputs": [
        {
          "internalType": "uint256[]",
          "name": "",
          "type": "uint256[]"
        }
      ],
      "payable": false,
      "stateMutability": "view",
      "type": "function"
    },
    {
      "constant": true,
      "inputs": [],
      "name": "getUsdtBalances",
      "outputs": [
        {
          "internalType": "uint256[]",
          "name": "",
          "type": "uint256[]"
        }
      ],
      "payable": false,
      "stateMutability": "view",
      "type": "function"
    },
    {
      "constant": true,
      "inputs": [],
      "name": "getTotalUsdtValue",
      "outputs": [
        {
          "internalType": "uint256",
          "name": "",
          "type": "uint256"
        }
      ],
      "payable": false,
      "stateMutability": "view",
      "type": "function"
    },
    {
      "constant": true,
      "inputs": [],
      "name": "getUsdtPrices",
      "outputs": [
        {
          "internalType": "uint256[]",
          "name": "",
          "type": "uint256[]"
        }
      ],
      "payable": false,
      "stateMutability": "view",
      "type": "function"
    },
    {
      "constant": true,
      "inputs": [],
      "name": "getPercentages",
      "outputs": [
        {
          "internalType": "uint256[]",
          "name": "",
          "type": "uint256[]"
        }
      ],
      "payable": false,
      "stateMutability": "view",
      "type": "function"
    }
  ],
  "bytecode": "0x60806040526040518060400160405280601281526020017f57656c636f6d6520746f205a454e4445582e000000000000000000000000000081525060009080519060200190620000519291906200035f565b5060405180606001604052806040518060400160405280600481526020017f757364740000000000000000000000000000000000000000000000000000000081525081526020016040518060400160405280600381526020017f627463000000000000000000000000000000000000000000000000000000000081525081526020016040518060400160405280600381526020017f657468000000000000000000000000000000000000000000000000000000000081525081525060019060036200011e929190620003e6565b506040518060a001604052806040518060600160405280600161ffff16815260200161ea6061ffff168152602001610fa061ffff1681525081526020016040518060600160405280600161ffff16815260200161c35061ffff168152602001610bb861ffff1681525081526020016040518060600160405280600161ffff16815260200161afc861ffff1681526020016109c461ffff1681525081526020016040518060600160405280600161ffff16815260200161fde861ffff16815260200161113061ffff1681525081526020016040518060600160405280600161ffff16815260200161ea6061ffff168152602001610fa061ffff1681525081525060029060056200022f9291906200044d565b5060006003553480156200024257600080fd5b5060405162001f9838038062001f98833981810160405260608110156200026857600080fd5b8101908080519060200190929190805190602001909291908051906020019092919050505082600460006101000a81548173ffffffffffffffffffffffffffffffffffffffff021916908373ffffffffffffffffffffffffffffffffffffffff16021790555081600560006101000a81548173ffffffffffffffffffffffffffffffffffffffff021916908373ffffffffffffffffffffffffffffffffffffffff16021790555080600660006101000a81548173ffffffffffffffffffffffffffffffffffffffff021916908373ffffffffffffffffffffffffffffffffffffffff16021790555060003390505050505062000687565b828054600181600116156101000203166002900490600052602060002090601f016020900481019282601f10620003a257805160ff1916838001178555620003d3565b82800160010185558215620003d3579182015b82811115620003d2578251825591602001919060010190620003b5565b5b509050620003e29190620004af565b5090565b8280548282559060005260206000209081019282156200043a579160200282015b828111156200043957825182908051906020019062000428929190620004d7565b509160200191906001019062000407565b5b5090506200044991906200055e565b5090565b8280548282559060005260206000209081019282156200049c579160200282015b828111156200049b578251829060036200048a9291906200058f565b50916020019190600101906200046e565b5b509050620004ab9190620005e7565b5090565b620004d491905b80821115620004d0576000816000905550600101620004b6565b5090565b90565b828054600181600116156101000203166002900490600052602060002090601f016020900481019282601f106200051a57805160ff19168380011785556200054b565b828001600101855582156200054b579182015b828111156200054a5782518255916020019190600101906200052d565b5b5090506200055a9190620004af565b5090565b6200058c91905b808211156200058857600081816200057e919062000618565b5060010162000565565b5090565b90565b828054828255906000526020600020908101928215620005d4579160200282015b82811115620005d3578251829061ffff16905591602001919060010190620005b0565b5b509050620005e39190620004af565b5090565b6200061591905b8082111562000611576000818162000607919062000664565b50600101620005ee565b5090565b90565b50805460018160011615610100020316600290046000825580601f1062000640575062000661565b601f016020900490600052602060002090810190620006609190620004af565b5b50565b5080546000825590600052602060002090810190620006849190620004af565b50565b61190180620006976000396000f3fe608060405234801561001057600080fd5b50600436106101415760003560e01c806374b431ce116100b8578063a87430ba1161007c578063a87430ba1461063a578063a98ad46c146106be578063ccb8c1e014610708578063cfc1848e146107d4578063f6d1c27114610820578063f936d6d2146108c757610141565b806374b431ce146104fa5780637bf1a627146105285780637d7c2a1c146105725780637e470e0a1461057c57806390f25eb3146105db57610141565b80632531bbaa1161010a5780632531bbaa146102ae57806345bc78ab146103665780634ee8d115146103be5780634fa281ff1461041457806359a0fe59146104425780636f49712b1461049e57610141565b8062113e081461014657806306fdde03146101a5578063074bc101146102285780630bec3f1f1461027257806323ab83b114610290575b600080fd5b61014e610926565b6040518080602001828103825283818151815260200191508051906020019060200280838360005b83811015610191578082015181840152602081019050610176565b505050509050019250505060405180910390f35b6101ad6109c1565b6040518080602001828103825283818151815260200191508051906020019080838360005b838110156101ed5780820151818401526020810190506101d2565b50505050905090810190601f16801561021a5780820380516001836020036101000a031916815260200191505b509250505060405180910390f35b610230610a5f565b604051808273ffffffffffffffffffffffffffffffffffffffff1673ffffffffffffffffffffffffffffffffffffffff16815260200191505060405180910390f35b61027a610a85565b6040518082815260200191505060405180910390f35b610298610aa8565b6040518082815260200191505060405180910390f35b610364600480360360208110156102c457600080fd5b81019080803590602001906401000000008111156102e157600080fd5b8201836020820111156102f357600080fd5b8035906020019184602083028401116401000000008311171561031557600080fd5b919080806020026020016040519081016040528093929190818152602001838360200280828437600081840152601f19601f820116905080830192505050505050509192919290505050610aae565b005b6103a86004803603602081101561037c57600080fd5b81019080803573ffffffffffffffffffffffffffffffffffffffff169060200190929190505050610b75565b6040518082815260200191505060405180910390f35b6103fe600480360360608110156103d457600080fd5b81019080803590602001909291908035906020019092919080359060200190929190505050610b8d565b6040518082815260200191505060405180910390f35b6104406004803603602081101561042a57600080fd5b8101908080359060200190929190505050610bce565b005b6104846004803603602081101561045857600080fd5b81019080803573ffffffffffffffffffffffffffffffffffffffff169060200190929190505050610e9e565b604051808215151515815260200191505060405180910390f35b6104e0600480360360208110156104b457600080fd5b81019080803573ffffffffffffffffffffffffffffffffffffffff169060200190929190505050610ebe565b604051808215151515815260200191505060405180910390f35b6105266004803603602081101561051057600080fd5b8101908080359060200190929190505050610ede565b005b610530611282565b604051808273ffffffffffffffffffffffffffffffffffffffff1673ffffffffffffffffffffffffffffffffffffffff16815260200191505060405180910390f35b61057a6112a8565b005b6105846114ac565b6040518080602001828103825283818151815260200191508051906020019060200280838360005b838110156105c75780820151818401526020810190506105ac565b505050509050019250505060405180910390f35b6105e3611551565b6040518080602001828103825283818151815260200191508051906020019060200280838360005b8381101561062657808201518184015260208101905061060b565b505050509050019250505060405180910390f35b61067c6004803603602081101561065057600080fd5b81019080803573ffffffffffffffffffffffffffffffffffffffff1690602001909291905050506115cb565b604051808273ffffffffffffffffffffffffffffffffffffffff1673ffffffffffffffffffffffffffffffffffffffff16815260200191505060405180910390f35b6106c6611609565b604051808273ffffffffffffffffffffffffffffffffffffffff1673ffffffffffffffffffffffffffffffffffffffff16815260200191505060405180910390f35b6107be6004803603602081101561071e57600080fd5b810190808035906020019064010000000081111561073b57600080fd5b82018360208201111561074d57600080fd5b8035906020019184602083028401116401000000008311171561076f57600080fd5b919080806020026020016040519081016040528093929190818152602001838360200280828437600081840152601f19601f82011690508083019250505050505050919291929050505061162f565b6040518082815260200191505060405180910390f35b61080a600480360360408110156107ea57600080fd5b810190808035906020019092919080359060200190929190505050611674565b6040518082815260200191505060405180910390f35b61084c6004803603602081101561083657600080fd5b81019080803590602001909291905050506116ab565b6040518080602001828103825283818151815260200191508051906020019080838360005b8381101561088c578082015181840152602081019050610871565b50505050905090810190601f1680156108b95780820380516001836020036101000a031916815260200191505b509250505060405180910390f35b6108cf611764565b6040518080602001828103825283818151815260200191508051906020019060200280838360005b838110156109125780820151818401526020810190506108f7565b505050509050019250505060405180910390f35b60608060008090505b6001805490508110156109b957600a60003373ffffffffffffffffffffffffffffffffffffffff1673ffffffffffffffffffffffffffffffffffffffff168152602001908152602001600020600101818154811061098957fe5b90600052602060002001548282815181106109a057fe5b602002602001018181525050808060010191505061092f565b508091505090565b60008054600181600116156101000203166002900480601f016020809104026020016040519081016040528092919081815260200182805460018160011615610100020316600290048015610a575780601f10610a2c57610100808354040283529160200191610a57565b820191906000526020600020905b815481529060010190602001808311610a3a57829003601f168201915b505050505081565b600560009054906101000a900473ffffffffffffffffffffffffffffffffffffffff1681565b60006060610a91611764565b90506000610a9e8261162f565b9050809250505090565b60035481565b6064610ab98261162f565b14610ac357600080fd5b80600a60003373ffffffffffffffffffffffffffffffffffffffff1673ffffffffffffffffffffffffffffffffffffffff1681526020019081526020016000206002019080519060200190610b199291906117ea565b506001600860003373ffffffffffffffffffffffffffffffffffffffff1673ffffffffffffffffffffffffffffffffffffffff16815260200190815260200160002060006101000a81548160ff02191690831515021790555050565b60076020528060005260406000206000915090505481565b600080600260035481548110610b9f57fe5b906000526020600020018581548110610bb457fe5b906000526020600020015483029050809150509392505050565b6060610bd8610926565b90506000610be4610a85565b905060008111610c5c576040517f08c379a00000000000000000000000000000000000000000000000000000000081526004018080602001828103825260168152602001807f4e6f2062616c616e636520746f20756e7374616b652e0000000000000000000081525060200191505060405180910390fd5b80831115610cb5576040517f08c379a00000000000000000000000000000000000000000000000000000000081526004018080602001828103825260238152602001806118aa6023913960400191505060405180910390fd5b6000818481610cc057fe5b0490506000809050600080905060008090505b600180549050811015610d1557610d0181600086898581518110610cf357fe5b602002602001015102610b8d565b915081830192508080600101915050610cd3565b5060008090505b600180549050811015610db05783868281518110610d3657fe5b602002602001015102600a60003373ffffffffffffffffffffffffffffffffffffffff1673ffffffffffffffffffffffffffffffffffffffff1681526020019081526020016000206001018281548110610d8c57fe5b90600052602060002001600082825403925050819055508080600101915050610d1c565b50600460009054906101000a900473ffffffffffffffffffffffffffffffffffffffff1673ffffffffffffffffffffffffffffffffffffffff1663a9059cbb33846040518363ffffffff1660e01b8152600401808373ffffffffffffffffffffffffffffffffffffffff1673ffffffffffffffffffffffffffffffffffffffff16815260200182815260200192505050602060405180830381600087803b158015610e5a57600080fd5b505af1158015610e6e573d6000803e3d6000fd5b505050506040513d6020811015610e8457600080fd5b810190808051906020019092919050505050505050505050565b60086020528060005260406000206000915054906101000a900460ff1681565b60096020528060005260406000206000915054906101000a900460ff1681565b60008111610f54576040517f08c379a00000000000000000000000000000000000000000000000000000000081526004018080602001828103825260138152602001807f416d6f756e742063616e6e6f7420626520302e0000000000000000000000000081525060200191505060405180910390fd5b600460009054906101000a900473ffffffffffffffffffffffffffffffffffffffff1673ffffffffffffffffffffffffffffffffffffffff166323b872dd3330846040518463ffffffff1660e01b8152600401808473ffffffffffffffffffffffffffffffffffffffff1673ffffffffffffffffffffffffffffffffffffffff1681526020018373ffffffffffffffffffffffffffffffffffffffff1673ffffffffffffffffffffffffffffffffffffffff1681526020018281526020019350505050602060405180830381600087803b15801561103157600080fd5b505af1158015611045573d6000803e3d6000fd5b505050506040513d602081101561105b57600080fd5b81019080805190602001909291905050505060011515600960003373ffffffffffffffffffffffffffffffffffffffff1673ffffffffffffffffffffffffffffffffffffffff16815260200190815260200160002060009054906101000a900460ff1615151514156111c15760608060405180606001604052803373ffffffffffffffffffffffffffffffffffffffff16815260200183815260200182815250600a60003373ffffffffffffffffffffffffffffffffffffffff1673ffffffffffffffffffffffffffffffffffffffff16815260200190815260200160002060008201518160000160006101000a81548173ffffffffffffffffffffffffffffffffffffffff021916908373ffffffffffffffffffffffffffffffffffffffff160217905550602082015181600101908051906020019061119d929190611837565b5060408201518160020190805190602001906111ba929190611837565b5090505050505b80600a60003373ffffffffffffffffffffffffffffffffffffffff1673ffffffffffffffffffffffffffffffffffffffff16815260200190815260200160002060010160008154811061121057fe5b90600052602060002001600082825401925050819055506001600960003373ffffffffffffffffffffffffffffffffffffffff1673ffffffffffffffffffffffffffffffffffffffff16815260200190815260200160002060006101000a81548160ff02191690831515021790555050565b600660009054906101000a900473ffffffffffffffffffffffffffffffffffffffff1681565b6060600a60003373ffffffffffffffffffffffffffffffffffffffff1673ffffffffffffffffffffffffffffffffffffffff16815260200190815260200160002060010180548060200260200160405190810160405280929190818152602001828054801561133657602002820191906000526020600020905b815481526020019060010190808311611322575b505050505090506060600a60003373ffffffffffffffffffffffffffffffffffffffff1673ffffffffffffffffffffffffffffffffffffffff1681526020019081526020016000206002018054806020026020016040519081016040528092919081815260200182805480156113cb57602002820191906000526020600020905b8154815260200190600101908083116113b7575b5050505050905060006113dc610a85565b905060008090505b6001805490508110156114a65760026003548154811061140057fe5b90600052602060002001818154811061141557fe5b906000526020600020015483828151811061142c57fe5b602002602001015183028161143d57fe5b04600a60003373ffffffffffffffffffffffffffffffffffffffff1673ffffffffffffffffffffffffffffffffffffffff168152602001908152602001600020600101828154811061148b57fe5b906000526020600020018190555080806001019150506113e4565b50505050565b60608060036040519080825280602002602001820160405280156114df5781602001602082028038833980820191505090505b50905060008090505b6001805490508110156115495760026003548154811061150457fe5b90600052602060002001818154811061151957fe5b906000526020600020015482828151811061153057fe5b60200260200101818152505080806001019150506114e8565b508091505090565b60608061155c611764565b90506000611568610a85565b9050606060008090505b6001805490508110156115c1578284828151811061158c57fe5b60200260200101518161159b57fe5b048282815181106115a857fe5b6020026020010181815250508080600101915050611572565b5080935050505090565b600a6020528060005260406000206000915090508060000160009054906101000a900473ffffffffffffffffffffffffffffffffffffffff16905081565b600460009054906101000a900473ffffffffffffffffffffffffffffffffffffffff1681565b6000806000809050600091505b835182101561166a5783828151811061165157fe5b602002602001015181019050818060010192505061163c565b8092505050919050565b6002828154811061168157fe5b90600052602060002001818154811061169657fe5b90600052602060002001600091509150505481565b600181815481106116b857fe5b906000526020600020016000915090508054600181600116156101000203166002900480601f01602080910402602001604051908101604052809291908181526020018280546001816001161561010002031660029004801561175c5780601f106117315761010080835404028352916020019161175c565b820191906000526020600020905b81548152906001019060200180831161173f57829003601f168201915b505050505081565b60608061176f610926565b9050606061177b6114ac565b9050606060008090505b6001805490508110156117e05782818151811061179e57fe5b60200260200101518482815181106117b257fe5b6020026020010151028282815181106117c757fe5b6020026020010181815250508080600101915050611785565b5080935050505090565b828054828255906000526020600020908101928215611826579160200282015b8281111561182557825182559160200191906001019061180a565b5b5090506118339190611884565b5090565b828054828255906000526020600020908101928215611873579160200282015b82811115611872578251825591602001919060010190611857565b5b5090506118809190611884565b5090565b6118a691905b808211156118a257600081600090555060010161188a565b5090565b9056fe416d6f756e74206578636565647320746f74616c2076616c756520696e20757364742ea265627a7a723158200b190e12918ea6022fc85dae85076cc2b55e6068da93a0a0d421f5e94b4da1ce64736f6c63430005100032",
  "source": "pragma solidity >=0.4.21 <0.6.0;\r\n\r\nimport \"./UsdtToken.sol\";\r\nimport \"./BtcToken.sol\";\r\nimport \"./EthToken.sol\";\r\n\r\n\r\ncontract Zendex {\r\n\r\n    // VARIABLES\r\n    string public name = \"Welcome to ZENDEX.\";\r\n    string[] public currencies = [\"usdt\", \"btc\", \"eth\"];\r\n    uint[][] public priceFeed = [[1, 60000, 4000],[1, 50000, 3000],[1, 45000, 2500],[1, 65000, 4400],[1, 60000, 4000]];\r\n    uint public timeJump = 0;\r\n\r\n    // State variables\r\n    UsdtToken public usdtToken;\r\n    BtcToken public btcToken;\r\n    EthToken public ethToken;\r\n\r\n    // Mapping lists\r\n    mapping(address => uint) public stakingBalance;\r\n    mapping(address => bool) public indexSetUp;\r\n    mapping(address => bool) public isStaking;\r\n    mapping(address => User) public users;\r\n\r\n    // User structure\r\n    struct User{\r\n        address userAddress;\r\n        uint[] balances; \r\n        uint[] indexPercentagesStatic;\r\n    }\r\n\r\n    // EVENTS\r\n    //event UsersUpdate(User users);\r\n\r\n    // MODIFIERS\r\n\r\n    // FUCTIONS\r\n\r\n    constructor (UsdtToken _usdtToken, BtcToken _btcToken, EthToken _ethToken) public {\r\n        // Pass (local variable) addresses to state variables to make them accessible to other functions\r\n        usdtToken = _usdtToken;\r\n        btcToken = _btcToken;\r\n        ethToken = _ethToken;\r\n        address owner = msg.sender;\r\n    }\r\n\r\n    // Staking USDT\r\n    function stakeUsdt(uint _amount) public {\r\n        require(_amount > 0, \"Amount cannot be 0.\");\r\n        // Transfer Mock USDT Tokensto this contract for staking\r\n        usdtToken.transferFrom(msg.sender, address(this), _amount);\r\n        // Update staking balance\r\n        if(!isStaking[msg.sender] == true) {\r\n            uint[] memory initBalances;\r\n            uint[] memory indexPercentagesStatic;\r\n            users[msg.sender] = User(msg.sender, initBalances, indexPercentagesStatic);\r\n        }\r\n        // Update amount USDT\r\n        users[msg.sender].balances[0] += _amount;\r\n\r\n        // Update staking status\r\n        isStaking[msg.sender] = true;\r\n        // Log to chain\r\n        //emit UsersUpdate(users);\r\n    }\r\n\r\n    // Unstaking USDT\r\n    function unstakeUsdt(uint amount) public {\r\n        // Fetch balances of assets\r\n        uint[] memory balances = getBalances();\r\n        // Fetch total value in USDT\r\n        uint totalUsdtValue = getTotalUsdtValue();\r\n        // Require total value in USDT > 0\r\n        require(totalUsdtValue > 0, \"No balance to unstake.\");\r\n        require(amount <= totalUsdtValue, \"Amount exceeds total value in usdt.\");\r\n        \r\n        // Trade assets for requested USDT\r\n        uint percentToUnstake = amount / totalUsdtValue;\r\n        uint totalUsdtTraded = 0;\r\n        uint usdtTraded = 0;\r\n        for (uint i=0; i<currencies.length; i++) {\r\n            usdtTraded = trade(i, 0, balances[i]*percentToUnstake);\r\n            totalUsdtTraded += usdtTraded;\r\n        }\r\n        \r\n        // Update user balances\r\n        for (uint i=0; i<currencies.length; i++) {\r\n            users[msg.sender].balances[i] -= balances[i]*percentToUnstake;\r\n        }\r\n\r\n        // Transfer amount to user\r\n        usdtToken.transfer(msg.sender, totalUsdtTraded);\r\n\r\n        // Log to chain\r\n        //emit UsersUpdate(users);\r\n    }\r\n\r\n    // Rebalancing\r\n    function rebalance() public {\r\n        uint[] memory balances = users[msg.sender].balances;\r\n        uint[] memory indexPercentagesStatic = users[msg.sender].indexPercentagesStatic;\r\n        \r\n        // Get total usdt value of index\r\n        uint totalUsdtValue = getTotalUsdtValue();\r\n        // Mock trade -> get new asset balances\r\n        for (uint i = 0; i<currencies.length; i++) {\r\n            users[msg.sender].balances[i] = totalUsdtValue * indexPercentagesStatic[i] / priceFeed[timeJump][i];\r\n        }\r\n\r\n        // Log to chain\r\n        //emit UsersUpdate(users);\r\n    }\r\n\r\n    // Index Setup\r\n    function setupIndex(uint[] memory percentages) public {\r\n        // Require that sum of percentages equals 100 percent\r\n        require(getSum(percentages) == 100.0);\r\n        // Write to user structure and set indexSetUp flag true\r\n        users[msg.sender].indexPercentagesStatic = percentages;\r\n        indexSetUp[msg.sender] = true;\r\n        \r\n    }\r\n    \r\n    // Get sum of elements of dynamic array\r\n    function getSum(uint[] memory arr) public view returns(uint)\r\n    {\r\n        uint i;\r\n        uint sum = 0;\r\n        for(i = 0; i < arr.length; i++)\r\n            sum = sum + arr[i];\r\n        return sum;\r\n    }\r\n\r\n    // Execute trade\r\n    function trade(uint indexCurrency1, uint indexCurrency2, uint amount) public returns(uint) {\r\n          // Execute mock trade\r\n          uint tradeOut = amount * priceFeed[timeJump][indexCurrency1];\r\n          return tradeOut;\r\n    }\r\n\r\n    // Get absolute balances\r\n    function getBalances() public view returns(uint[] memory) {\r\n        uint[] memory balances;\r\n        for (uint i=0; i<currencies.length; i++) {\r\n            balances[i] = users[msg.sender].balances[i];\r\n        }\r\n        return balances; \r\n    }\r\n\r\n    // Get balances in USDT\r\n    function getUsdtBalances() public view returns(uint[] memory) {\r\n        uint[] memory balances = getBalances();\r\n        uint[] memory usdtPrices = getUsdtPrices();\r\n        uint[] memory usdtBalances;\r\n        for (uint i=0; i<currencies.length; i++) {\r\n            usdtBalances[i] = balances[i] * usdtPrices[i];\r\n        }\r\n        return usdtBalances;\r\n    }\r\n\r\n    // Get total balance in USDT\r\n    function getTotalUsdtValue() public view returns(uint) {\r\n        uint[] memory usdtBalances = getUsdtBalances();\r\n        uint totalUsdtValue = getSum(usdtBalances);\r\n\r\n        return totalUsdtValue;\r\n    }\r\n\r\n    // Get prices in USDT\r\n    function getUsdtPrices() public view returns(uint[] memory) {\r\n        uint[] memory usdtPrice = new uint[](3);\r\n        for (uint i=0; i<currencies.length; i++) {\r\n            usdtPrice[i] = priceFeed[timeJump][i];\r\n        }\r\n        return usdtPrice;\r\n    }\r\n\r\n    // Get percentages\r\n    function getPercentages() public view returns(uint[] memory) {\r\n\r\n        // Get balances from user\r\n        uint[] memory usdtBalances = getUsdtBalances();\r\n        uint totalUsdtBalance = getTotalUsdtValue();\r\n        uint[] memory percentages;\r\n        for (uint i=0; i<currencies.length; i++) {\r\n            percentages[i] = usdtBalances[i] / totalUsdtBalance;\r\n        }\r\n        return percentages;\r\n    }\r\n    \r\n}",
  "sourcePath": "C:\\Users\\ThinkPad T460s\\Documents\\GitHub\\Zendex\\src\\contracts\\Zendex.sol",
  "compiler": {
    "name": "solc",
    "version": "0.5.16+commit.9c3226ce.Emscripten.clang"
  },
  "schemaVersion": "3.4.3",
  "updatedAt": "2021-12-05T15:34:17.824Z",
  "networkType": "ethereum",
  "devdoc": {
    "methods": {}
  },
  "userdoc": {
    "methods": {}
  }
}